:100000000C94F2070C94D11E0C94281F0C947F1FA3
:100010000C940F080C940F080C940F080C940F0804
:100020000C940F080C940F080C940F080C94681E85
:100030000C940F080C943F230C9472230C940F081B
:100040000C943E1E0C940F080C940F080C940F088F
:100050000C940F08C614C614C914C914C914C914C1
:100060009B159B159B159B159B159B159B159B1510
:100070009B159B159B159B159B159B159B159B1500
:100080009B159B15D114D914DD14ED149B159B15EC
:100090009B159B15241533154215511560156F15C9
:1000A0007E158D15F014F514FA14FF1404151415AB
:1000B000AB1CF81CB31CAE1C651DFB1C611D442051
:1000C0008A208A208A208A208A208A208A208A20E0
:1000D0008A208A208A208A208A208A208A208A20D0
:1000E0008A208A208A208A208A208A208A208A20C0
:1000F0008A208A208A208A208A208A208A208A20B0
:100100008A208A208A208A208A208A208A208A209F
:100110008A208A208A208A208A208A208A208A208F
:100120008A208A208A208A208A208A208A208A207F
:100130008A208A208A208A208A208A208A208A206F
:1001400028208A208A202F208A208A208A208A201C
:100150006D208A205E208A208A208A208A204F20D3
:100160008A208A203D207C208A208A203620084A46
:10017000D73B3BCE016E84BCBFFDC12F3D6C7431BB
:100180009ABD56833DDA3D00C77F11BED9E4BB4C12
:100190003E916BAAAABE000000803F000004080D3B
:1001A00011161A1F23272C3035393D41464A4E532C
:1001B000575B5F63676B6F73777B7F83878A8E92F2
:1001C00095999CA0A3A7AAADB1B4B7BABDC0C3C648
:1001D000C8CBCED0D3D5D8DADCDFE1E3E5E7E8EA77
:1001E000ECEEEFF1F2F3F5F6F7F8F9FAFBFBFCFDB4
:1001F000FDFEFEFEFEFEFF04EF03800204CF00C101
:100200003005ED6403128104E885007806CB392CB3
:1002100000340202F72003EA000002C02302C110EA
:1002200003C53E2802C786023648023A5503B1008C
:100230001804B608822702F20002260110E00F31EE
:100240002B0C0E084EF1370710030E090010E100C9
:100250000E1403110731C148080F0C31360F002C62
:1002600020000D0A002064697374616E63653D00AF
:10027000746F663D00207370656564323D00737075
:10028000656564313D002072633D0020736C3D0064
:1002900073723D002066723D002066633D00666C0F
:1002A0003D0073746174653D00207475726E3D008D
:1002B00068656164696E673D002C20002068656197
:1002C00064696E673D00696E76657273653D006DA9
:1002D00061783D006D696E3D006164633D00446F6F
:1002E0006E6500426C61636B206C696E65005768D7
:1002F000697465206C696E65004E6F206C696E656F
:10030000206465746563746564006D696E5370651F
:1003100065643D0020726561723D0020736964650B
:100320003D0066726F6E743D002064543D00204BAA
:10033000643D00204B693D004B703D0020746172AC
:100340006765743D0068656164696E673D0020649F
:10035000757479323D002072706D323D00737065A6
:100360006564323D002064757479313D00207270FF
:100370006D313D007370656564313D004E6F206CDA
:10038000696E65004F626A656374000D0A000D0AAC
:100390004E65772076616C75653A2000696E743D14
:1003A000004B693D004B643D004B703D0066616948
:1003B0006C2000564C35334C3058202332200066D8
:1003C00061696C2000564C35334C30582023312065
:1003D000004D656E750000646F6E650D0A00666104
:1003E000696C2000514D43353838334C2000496E3C
:1003F00069742E2E2E000D0A002C20006D6F746F74
:10040000723D00666F72776172642C200073746FA6
:10041000702C20006261636B776172642C20006C29
:100420006566742C200072696768742C200000E0F7
:10043000FF070000FEFF7F00801F00F001E00300C7
:100440008007700000000E380000001C1C00000037
:1004500038FC0300C03FFC0300C03F000300C000A5
:100460003E0300C03C7F0300C07E7F0300C07E7F50
:100470000300C07E7F0300C07E7F0300C07E7F0339
:1004800000C07E7F0300C07E7F0300C07E7F03002C
:10049000C07E7F0300C07E7F0300C07E7F0300C05C
:1004A0007E7F0300C07E3E0300C03C000300C0000E
:1004B000FC0300C01FFC0300C01F0C000000180C50
:1004C000000000180C000000180C000000180C00C0
:1004D000000018FC0300C01FFC0300C01F00030045
:1004E000C0003E0300C03C7F0300C07E7F0300C00D
:1004F0007E7F0300C07E7F0300C07E7F0300C07E3E
:100500007F0300C07E7F0300C07E7F0300C07E7F2C
:100510000300C07E7F0300C07E7F0300C07E7F0398
:1005200000C07E7F0300C07E3E0300C03C0003008D
:10053000C000FC0300C03FFC0300C03F0C000000F3
:10054000301800000038780000001CE00000000FA8
:10055000C00700E00300FFC1FF0000F8FF1F00FF1D
:10056000FFFFFF070100000004F107000004F1078E
:1005700000000471000000047180073C0471E00F6A
:100580007F04F1E7884704F1E783030471C08F0318
:100590000471009E030471209C4704F1E71F7F044F
:1005A000F1C7073E040100000004FFFFFFFF07FF43
:1005B000FFFFFF0701000000040100000004010C20
:1005C000006004010F006004810F006004E10F006F
:1005D0006004F9FFFF7F04F9FFFF7F04E10F0000D3
:1005E00004810F000004010F000004010C0000044E
:1005F00001000000040100000004FFFFFFFF07FFEF
:10060000FF01010001FD7F01F93F01F93F01F11FE9
:1006100001F11F01E10F01E10F01C10701C1070154
:10062000810301810301010101010001FFFF01FFBD
:10063000FF01010001010101810301810301C107E3
:1006400001C10701E10F01E10F01F11F01F11F01DC
:10065000F93F01F93F01FD7F01010001FFFF010AA0
:1006600007150773075907680763070000000000B4
:10067000000000000000000000000000000000007A
:10068000000000000000000000000000000000C4A6
:1006900007B8079F07AB07000000000000000052EA
:1006A000074B0744070307F606E906DC06CF068674
:1006B000077D0797078E072D072107000000000020
:1006C00000000000000000000000000000000053D7
:1006D0006574206D696E53706565640053657420A0
:1006E00072656172436F6C6C00536574207369644A
:1006F00065436F6C6C005365742066726F6E744353
:100700006F6C005365742064540053656C662064FC
:1007100072697665004C696E6520666F6C6C6F77E8
:10072000005475726E2039302063637700547572FF
:100730006E203930206377004E65772076616C75C6
:10074000653A2000536574204B6400536574204B58
:100750006900536574204B7000436F6E666967755E
:1007600072650050696E6700546573742064726925
:1007700076650043616C6962726174650042616311
:100780006B7761726400466F727761726400476FC5
:1007900020726967687400476F206C656674004D4D
:1007A00061676E65746F2063616C00526573657478
:1007B00020626F756E64730053746F7020697220CD
:1007C00063616C0053746172742069722063616CA0
:1007D0000000000A0F205F00000000000000000081
:1007E000000000000000000000000000000000FE0B
:1007F000FE000000000000000019190000000000C9
:10080000001E1E00001E1E00000000000000000070
:100810000000000030FEFE3030FEFE300000031FFE
:100820001F03031F1F03000070F8D8FE98980000F4
:1008300000000C18187F191F0F00001CB6A2F6CC80
:1008400060602030000101000E1B111B0E00000033
:1008500000DC7EE6C6860C808000070F1C18191F7E
:100860001E1F13000000001E1E00000000000000FC
:1008700000000000000000000000E0FC1E0200007C
:1008800000000000073F78400000000000021EFC4E
:10089000E000000000000040783F0700000000007A
:1008A000487830FE30784800000000000001000069
:1008B00000000000808080F0F08080800000010156
:1008C000010F0F0101010000000000000000000006
:1008D00000000000407C3C00000000000000000020
:1008E00000000000000000030303030300000000F9
:1008F000000000000000000000000000001C1C00C0
:1009000000000000000000C0F03C0E020000203893
:100910001E07010000000000F0FC0EC6C60EFCF829
:100920000000030F1C18181C0F070000000C06FE27
:10093000FE00000000001818181F1F1818180000EB
:100940000C06060686C67C380000181C1E1B1918EB
:10095000181800000C06C6C6C6C6FC3800000C18E5
:10096000181818190F0F000080C070180EFEFE0036
:10097000000003030303031F1F030000FE7E6666DF
:1009800066E6C68000000C181818181C0F07000037
:10099000F0FCCE6666E6CC800000070F1C18181C21
:1009A0000F07000006060606E6FE3E0E00000010D9
:1009B0001C0F03000000000038FCC6C6C6C6FC3889
:1009C00000000F0F181818180F0F000078FCCE86C3
:1009D00086CEFCF80000000C1919191C0F0300004A
:1009E000000000E0E000000000000000001C1C000F
:1009F00000000000000000E0E00000000000000037
:100A0000407C3C00000000008080C04060602030DE
:100A10000000010103020606040C00006060606033
:100A20006060606000000606060606060606000016
:100A30003020606040C0808000000C040606020385
:100A4000010100000C0686C6667E1C000000000046
:100A50001B1B0000000000E0F0389CCCCCDCF8F060
:100A600000071F38736766667727000000C0FC3EEA
:100A70003EFCC0000000181F0F03030F1F180000EA
:100A8000FEFEC6C6C6C6FC3C00001F1F181818187C
:100A90001F0F0000F0FC0C060606060C0000030FFA
:100AA0000C181818180C0000FEFE0606060CFCF0C8
:100AB00000001F1F1818180C0F030000FEFEC6C60A
:100AC000C6C6C60600001F1F181818181818000000
:100AD000FEFEC6C6C6C6C60600001F1F00000000F8
:100AE00000000000F0FC0C068686868C0000030FD8
:100AF0000C1819191F0F0000FEFEC0C0C0C0FEFE7A
:100B000000001F1F000000001F1F0000000606FE5F
:100B1000FE06060000000018181F1F18180000002D
:100B2000000000060606FEFE00000C181818181833
:100B30000F0F0000FEFEE0F0FC0E060200001F1F7B
:100B40000000030F1E180000FEFE00000000000061
:100B500000001F1F1818181818180000FEFE3EF09D
:100B6000F03EFEFE00001F1F000101001F1F0000DD
:100B7000FEFE1EF0C000FEFE00001F1F0000031E50
:100B80001F1F0000F0FC0E06060EFCF00000030F15
:100B90001C18181C0F030000FEFEC6C6C6C67C7CCF
:100BA00000001F1F0000000000000000F0FC0E0607
:100BB000060EFCF00000030F1C18183C6F07000025
:100BC000FEFEC6C6C6C6FC3C00001F1F0000010397
:100BD0001F1E1000387CE6C6C6C68C0000000C182C
:100BE000181818190F0F0000060606FEFE06060666
:100BF00000000000001F1F0000000000FEFE0000BB
:100C00000000FEFE0000070F1C18181C0F07000054
:100C100006FEFC0000FCFE06000000001F1F1F1F58
:100C20000000001EFEE000F0F000E0FE1E001F1FAE
:100C30001E01011E1F1F0000020E3EF8F83E0E02AC
:100C40000000101C1F03031F1C1000020E3E78E062
:100C5000E0783E0E02000000001F1F0000000000B0
:100C6000060686C6F67E1E0E00001C1E1F1B1818E8
:100C7000181800000000FEFE020200000000000044
:100C80007F7F404000000000020E38E0800000003E
:100C9000000000000000030E38200000000202FEE9
:100CA000FE00000000000040407F7F0000000010B8
:100CB000181C0E060E1C181000000000000000009A
:100CC0000000000000000000000000000040404064
:100CD0004040404040404000000103060400000046
:100CE000000000000000000000000000006030B0C4
:100CF000B0B0F0E000000E1F1B19190D1F1F0000FF
:100D0000FEFE60303070E0C000001F1F0C18181C81
:100D10000F070000C0E07030303030600000070F77
:100D20001C181818180C0000C0E070303060FEFE6F
:100D30000000070F1C18180C1F1F0000C0E0B0B007
:100D4000B0B0E0C00000070F1D191919190D0000FF
:100D50003030FCFE36363600000000001F1F000059
:100D600000000000C0E070303060F0F00000033799
:100D70006E6C6C667F3F0000FEFE60303030F0E04D
:100D800000001F1F000000001F1F0000003030F790
:100D9000F700000000001818181F1F18181800008E
:100DA000003030F7F700000000006060607F3F0017
:100DB00000000000FEFE80E07030100000001F1FE9
:100DC0000103071E181000000606FEFE00000000CA
:100DD000000000000F1F181818000000F0F030F09D
:100DE000E030F0E000001F1F001F1F001F1F000069
:100DF000F0F060303030F0E000001F1F0000000015
:100E00001F1F0000C0E070303070E0C00000070F0E
:100E10001C18181C0F070000F0F060303070E0C0A4
:100E200000007F7F060C0C0E07030000C0E070304E
:100E30003060F0F0000003070E0C0C067F7F00000E
:100E400000F0F060303030300000001F1F00000064
:100E500000000000E0F0B0B0B0B0306000000C194D
:100E60001919191B1F0E00003030FCFC3030300007
:100E7000000000000F1F181818000000F0F000001C
:100E80000000F0F000000F1F1818180C1F1F0000C2
:100E900030F0E00000E0F030000000010F1E1E0FF7
:100EA00001000070F00000C0C00000F07000071FDB
:100EB0001E03031E1F0700001030F0C0C0F03010EA
:100EC000000010181E07071E1810000010F0F08018
:100ED00000F0F03000000060637F1F0F0100000091
:100EE00030303030B0F070300000181C1E1B191864
:100EF00018180000000000FCFE02020000000001C3
:100F0000013E7E4040000000000000FEFE000000A8
:100F100000000000007F7F0000000000000202FED1
:100F2000FC00000000000040407E3E010100000087
:100F300080C0C0C0808080C00000010000000101AE
:100F400001000050FF010000FF0009001000110027
:100F5000240125FF7500FF014E2C48003020FF00C2
:100F600030095400310432034083462560002700D5
:100F700050065100529656085730610062006400D6
:100F8000650066A0FF012232471449FF4A00FF00B6
:100F90007A0A7B007821FF012334420044FF452672
:100FA000460540400E06201A4340FF0034033544F6
:100FB000FF0131044B094C054D04FF00440045205E
:100FC0004708482867007004710172FE76007700B8
:100FD000FF010D01FF00800101F8FF018E010001FA
:100FE000FF00800011241FBECFE5D8E0DEBFCDBFDB
:100FF00010E0A0E6B0E0ECE5FBE502C005900D9244
:10100000AC36B107D9F722E0ACE6B0E001C01D92E2
:10101000A232B207E1F70E948B200C94AC2D0C9405
:10102000000098B39E7F98BB98B39F7E98BB8FB902
:1010300000C000C000C000C000C000C000C000C0B0
:10104000000088B3816088BB88B3806188BB089545
:1010500098B39F7E98BB8FB900C000C000C000C08D
:1010600000C000C000C000C0000088B3806188BB21
:101070000895EF92FF920F931F93CF93DF9388B35E
:10108000826088BB87B3836187BB87B3806A87BB75
:1010900080E58DB98EB181608EB988B3806188BBDF
:1010A00088B38D7F88BB8FE19EE40197F1F700C084
:1010B000000088B3826088BB9FEFEBEDF5E09150B4
:1010C000E040F040E1F700C0000081E00E9411081C
:1010D0008FE19EE40197F1F700C00000C7EFD1E077
:1010E000CE010196FE0124911FEF120F2223A9F0D9
:1010F0002296FC0184910E9411080AC07E01FFEF34
:10110000EF1AFF0AFE0184910E942808102FE701C0
:101110000FEF010F1111F2CFE3CF81E10E9411080F
:101120008FE19EE40197F1F700C0000089E20E9480
:101130001108DF91CF911F910F91FF90EF900895CB
:10114000E8B3EE7FE8BBE8B3EF7EE8BBEAE2EFB9D5
:1011500000C000C000C000C000C000C000C000C08F
:101160000000E8B3E160E8BB9FB900C000C000C068
:1011700000C000C000C000C000C000008FB900C0A7
:1011800000C000C000C000C000C000C000C000001F
:101190005FB900C000C000C000C000C000C000C0F7
:1011A00000C000004FB900C000C000C000C000C0B7
:1011B00000C000C000C0000088B38E7F88BB88B329
:1011C0008F7E88BB8BE28FB900C000C000C000C01A
:1011D00000C000C000C000C0000088B3816088BBB0
:1011E0007FB900C000C000C000C000C000C000C087
:1011F00000C000006FB900C000C000C000C000C047
:1012000000C000C000C000003FB900C000C000C066
:1012100000C000C000C000C000C000002FB900C066
:1012200000C000C000C000C000C000C000C000007E
:1012300088B38E7F88BB88B38F7E88BB8CE28FB9E2
:1012400000C000C000C000C000C000C000C000C09E
:10125000000088B3816088BB88B3806188BB089533
:10126000CF93DF9320916200309163008217930740
:1012700008F02BC020916000309161006217730765
:1012800020F5D52FC42F9B012F5F3F4FAC014F5F3F
:101290005F4F0E94A00888B38F7E88BBDFB900C073
:1012A00000C000C000C000C000C000C000C00000FE
:1012B000CFB900C000C000C000C000C000C000C066
:1012C00000C0000088B3806188BBDF91CF91089592
:1012D0000F931F93CF93DF93EA01122F032F2091D7
:1012E0006200309163008217930708F037C02091A5
:1012F0006000309161006217730708F02FC0AB01E6
:101300004C0F5D1F415051094217530718F0E90176
:10131000C61BD70B9E01260F371F21503109AC0188
:101320000E94A00888B38F7E88BB2097A1F00FB9D8
:1013300000C000C000C000C000C000C000C000C0AD
:1013400000001FB900C000C000C000C000C000C045
:101350000000219761F788B3806188BBDF91CF914E
:101360001F910F9108950F931F93CF93DF93EA017D
:10137000122F032F20916200309163008217930790
:1013800008F037C040916000509161006417750704
:1013900008F02FC0AC014C0F5D1F4150510942179E
:1013A000530718F0E901C81BD90BAE01480F591FAC
:1013B000415051099B010E94A00888B38F7E88BBD1
:1013C0002097A1F00FB900C000C000C000C000C04D
:1013D00000C000C000C000001FB900C000C000C0B5
:1013E00000C000C000C00000219761F788B3806191
:1013F00088BBDF91CF911F910F910895EF92FF92DB
:101400000F931F93CF93DF937A01E901209162003C
:10141000309163008217930708F04DC0409160003F
:10142000509161006417750708F045C0FC01EE0D8E
:10143000FF1D3197E217F30718F07901E81AF90A4E
:101440009B012C0F3D1F215031092417350718F03F
:10145000EA01C61BD70B9E01260F371FA701480FB5
:10146000591F21503109415051090E94A00888B3E9
:101470008F7E88BB18C0C7010097A1F01FB900C0BC
:1014800000C000C000C000C000C000C000C000001C
:101490000FB900C000C000C000C000C000C0000004
:1014A000019761F7E9019E0121503109CD2B19F710
:1014B00088B3806188BBDF91CF911F910F91FF901E
:1014C000EF9008950F931F93209160003091610079
:1014D00040916200509163008C0160E070E080E018
:1014E00090E00E94FE091F910F910895CF93C82F9D
:1014F00086E30E9411088C2F83708130B1F028F0B0
:10150000823019F1833089F13FC088E40E942808B5
:1015100080EF90E0909363008093620080E491E01C
:1015200090936100809360002FC088E20E94280899
:1015300080E491E0909363008093620080EF90E0FC
:1015400090936100809360001FC088E80E94280883
:1015500080EF90E0909363008093620080E491E0DC
:1015600090936100809360000FC088EE0E9428086D
:1015700080E491E0909363008093620080EF90E0BC
:101580009093610080936000CF9108952F923F92D5
:101590004F925F926F927F928F929F92AF92BF9283
:1015A000CF92DF92EF92FF920F931F93CF93DF932F
:1015B00000D000D0CDB7DEB79C838B837B015A016E
:1015C000490128019A01281B390BC401861B970B7E
:1015D0008901332324F400271127021B130B6C010C
:1015E000992324F4CC24DD24C81AD90A3601D194D5
:1015F000C194D1082B813C812A153B0518F431E0B8
:10160000398302C04FEF4983E814F90418F481E0EC
:101610008A8302C09FEF9A83180126183708A20117
:10162000B7018B819C810E943009C101880F991FED
:101630008C159D0574F02B813C812A153B05B9F072
:10164000261837084981240F311D47FD3A953C8300
:101650002B83081719071CF3E814F90441F0200E36
:10166000311E8A81E80EF11C87FDFA94D8CF0F90C5
:101670000F900F900F90DF91CF911F910F91FF90DE
:10168000EF90DF90CF90BF90AF909F908F907F9022
:101690006F905F904F903F902F900895AF92BF92C0
:1016A000CF92DF92EF92FF920F931F93CF93DF932E
:1016B0005C017B01EA01690198010E94B309B7014D
:1016C0006C0D7D1D615071099801AE01C5010E942C
:1016D000B3099801A601B701C5010E946809C501B7
:1016E0008C0F9D1F9801A601B70101970E94680900
:1016F000DF91CF911F910F91FF90EF90DF90CF90EE
:10170000BF90AF90089502C088599E4F9923E4F38B
:1017100002C088569140883621E09207D4F78A3576
:10172000910534F4FC01E456FE4F849190E0089555
:10173000843B91054CF4E4EBF0E0E81BF90BE45634
:10174000FE4F849190E008958E3021E092074CF492
:10175000FC01E851FF4F849190E0919581959109AA
:101760000895E8E6F1E0E81BF90BE456FE4F84919A
:1017700090E09195819591090895865A9F4F0E9416
:10178000830B08956F927F928F929F92AF92BF9238
:10179000CF92DF92EF92FF920F931F93CF93DF933D
:1017A0007C016B014901EA01CA55D109CE010E94B1
:1017B000830B9C01289DC001299D900D389D900DA3
:1017C0001124AA24AA94B12CB5010E94802C3B01BB
:1017D0006C0C7D1CCE010E94BD0B9C01829EC00141
:1017E000839E900D929E900D1124B5010E94802C35
:1017F000AB014E0D5F1D9301B601C7010E94C60AE1
:10180000DF91CF911F910F91FF90EF90DF90CF90DC
:10181000BF90AF909F908F907F906F90089590931E
:10182000AB018093AA01FC01249130E0322F2227E2
:1018300031968491282B3093AD012093AC0108950B
:101840002F923F924F925F926F927F928F929F92D0
:10185000AF92BF92CF92DF92EF92FF920F931F93BE
:10186000CF93DF93CDB7DEB727970FB6F894DEBFDF
:101870000FBECDBF4C015B01A42F19011F830E8346
:101880008091AA019091AB01FC013296749031963F
:10189000F490319654903196D49006960091AC0114
:1018A0001091AD01B1E00130110509F4B0E02F2D28
:1018B00030E0B901695F7F4FAB0112F4495F5F4FC0
:1018C000BA01759567957595679575956795662EB7
:1018D000A5190230110560F46A9FA0011124749EBD
:1018E0006001759ED00C1124C80ED91E1D8224C023
:1018F000FC01EA0FF11D74904F2D477021F058E064
:10190000541B5D8301C01D82C12C40E050E007C024
:10191000FC01EC0DF11DE4914E0F511DC394CA164C
:10192000B8F3649FF001659FF00D1124AF014D0DD8
:10193000511D6A01C80ED91E672D70E08E2D90E0F2
:101940009C838B83AC01649FC001659F900D749F45
:10195000900D1124880D991D4091620050916300F3
:101960004817590708F463C14B815C81249FC0016B
:10197000259F900D349F900D11248A0D9B1D409141
:101980006000509161004817590708F450C18E81DA
:101990009F812816390609F097C093C09D8199232D
:1019A00051F021E062120AC081E0F82E01C0FF0C64
:1019B0009A95EAF705C0FF24F39402C0FF24F3943C
:1019C000412C512C6DC049815A814F5F5F4F5A8322
:1019D000498369817A816817790788F4FB01EC0DE6
:1019E000FD1DE491EF2179F3A0E0B0E00AC011966B
:1019F00029813A812F5F3F4F3A83298302C0A0E0BB
:101A0000B0E049815A814817590730F4FA01EC0DCA
:101A1000FD1DE491EF2159F71097B1F151E0E51266
:101A20000EC09101AD01B501640D751D89819A81CA
:101A3000880D991D8A1B9B0B0E94B30925C02E2D72
:101A400030E0429EB001439E700D529E700D1124F5
:101A500049815A814A1B5B0B249FC001259F900D31
:101A6000349F900D1124A29FA001A39F500DB29FFF
:101A7000500D11246A0D7B1D8101880D991D0E9456
:101A8000FE0902C01A821982872D90E069817A814D
:101A90006817790708F49DCFFF0C7FEF471A570AA4
:101AA00088E04816510470F38B819C81880F991F40
:101AB000880F991F880F991FA80EB91E6A94C70C2A
:101AC000D11C61106BCFB3C04B2E512C240D351D92
:101AD0004B815C81429FC001439F900D529F900DAE
:101AE00011248A0D9B1D640D751D469F9001479F13
:101AF000300D569F300D11243A832983A901480DDA
:101B0000591D9C012150310941505109B501C401B1
:101B10000E94A00888B38F7E88BB31E066C08E2DFE
:101B200090E0F601E20FF11DE491E32319F0522D4C
:101B3000632D02C05E816F810097A1F06FB900C074
:101B400000C000C000C000C000C000C000C0000055
:101B50005FB900C000C000C000C000C000C00000ED
:101B6000019761F72F5F01C020E0271508F4D7CF58
:101B70006B817C81649DC001659D900D749D900D6D
:101B800011247E812F810097A1F02FB900C000C0E1
:101B900000C000C000C000C000C000C000007FB98D
:101BA00000C000C000C000C000C000C0000001971D
:101BB00061F74F5F01C040E04E1508F4D5CF330FF9
:101BC00099F4C70CD11C3D81332359F06A9441E04C
:101BD000641209C031E00D8001C0330F0A94EAF7A6
:101BE00003C031E001C031E0FA94F110E4CF0130DC
:101BF0001105D1F089819A815E816F810097A1F0F2
:101C00006FB900C000C000C000C000C000C000C06C
:101C100000C000005FB900C000C000C000C000C02C
:101C200000C00000019761F788B3806188BB2796E8
:101C30000FB6F894DEBF0FBECDBFDF91CF911F91DD
:101C40000F91FF90EF90DF90CF90BF90AF909F905B
:101C50008F907F906F905F904F903F902F9008955E
:101C60003F924F925F926F927F928F929F92AF922C
:101C7000BF92CF92DF92EF92FF920F931F93CF9379
:101C8000DF9300D000D0CDB7DEB73C014B015A0145
:101C900069012801FA82E982790187E0E80EF11CE6
:101CA000F694E794F694E794F694E79400E010E055
:101CB000312C37C08B819C8187709927892B11F03B
:101CC000369412C0E09EF001E19EF00D11248B814C
:101CD0009C81969587959695879596958795E80F1B
:101CE000F91FEA0DFB1D349030FE09C049815A816D
:101CF000B4018B819C81860D971D0E9430098B81D8
:101D00009C8101969C838B8302C01C821B828B81E9
:101D10009C818C159D0570F20F5F1F4F9FEF891AF4
:101D2000990A0415150588F30F900F900F900F90E6
:101D3000DF91CF911F910F91FF90EF90DF90CF90A7
:101D4000BF90AF909F908F907F906F905F904F90DB
:101D50003F900895209162003091630082179307AD
:101D600010F0C901019790936F0080936E008091ED
:101D70006000909161006817790718F0BC0161500C
:101D8000710970936D0060936C00089590936700E3
:101D90008093660070936500609364000895EF92ED
:101DA0000F931F93CF932091AA013091AB01F901BA
:101DB00033965491319694916091AC017091AD013C
:101DC0006230710548F0E82FF0E03696E91BF10922
:101DD000E20FF31FC49103C0F9013296C491613040
:101DE000710511F05F5FCF5F8A3099F410926F0038
:101DF00010926E002091680080916C0090916D00AF
:101E0000259F800D911D112490936D0080936C008F
:101E100030C0F90135962491891758F1482F50E0C8
:101E200030E0290F311D421753071CF5482F009150
:101E30006400109165002091660030916700609108
:101E40006C0070916D00E090680080916E00909140
:101E50006F000E94200C2091680080916E0090918C
:101E60006F002C9F800D911D112490936F00809323
:101E70006E00CF911F910F91EF900895CF93DF9354
:101E8000EC0103C021960E94CF0E88818111FACF08
:101E9000DF91CF910895CF93DF93FC0103C00E949F
:101EA000CF0EFE01EF01219684918111F8CFDF91D1
:101EB000CF9108950F931F93DC01E091AA01F09157
:101EC000AB01339624918091AC019091AD010197C3
:101ED00009F02F5FE0916E00F0916F00CD018E1B35
:101EE0009F0BBC0122F466277727681B790B462FCE
:101EF000572F009164001091650030E060916C00F4
:101F000070916D00CF01AE17BF0708F4CD010E949C
:101F1000FE091F910F91089580E687B98FE886B971
:101F2000089581B3806281BB8FB582688FBD8EB505
:101F30008A618EBD8FE39CE997BD86BD83EE9CE0F0
:101F40009BBD8ABD0895609196006F5F6093960077
:101F500020B32071922F909580919500892349F0AC
:101F600070E080E79BE00E946C2C6093FE01109271
:101F7000960020939500809196008F3F21F4109257
:101F8000FE0110929600609194006F5F6093940040
:101F900020B32074922F909580919300892349F06B
:101FA00070E080E79BE00E946C2C6093100210921E
:101FB000940020939300809194008F3F21F410921D
:101FC0001002109294000895CF92DF92EF92FF9248
:101FD0000F931F93CF93DF9320910B0230910C024C
:101FE0002115310509F482C0C901992324F48827F9
:101FF0009927821B930B2091FE01821B910920914E
:10200000910030919200FC01E21BF30B909392003F
:10201000809391008C01092E000C220B330B409110
:102020008D0050918E0060918F007091900068013A
:102030007901C40ED51EE61EF71EA7019601C092B7
:102040008D00D0928E00E0928F00F092900060910F
:102050000A02689FE001699FD00D1124A091B3018D
:10206000B0E00E94EA2C8E01DD0F220B330BDC0165
:10207000CB01800F911FA21FB31F2091F8012E9F4B
:10208000B0012F9F700D1124AB01770F660B770BFA
:102090007A018B01E80EF91E0A1F1B1FC801B70148
:1020A00024E630E040E050E00E94B62CC9019923BC
:1020B0003CF02F3F310529F024F02FEF30E001C034
:1020C00020E02CBF80910B0290910C0299233CF4EC
:1020D00085B38B7F85BB85B3886085BB1AC085B30C
:1020E000877F85BB85B3846085BB13C01092920047
:1020F0001092910010928D0010928E0010928F001D
:102100001092900085B38B7F85BB85B3877F85BB9D
:102110001CBE2091B9013091BA012115310509F495
:1021200082C0C901992324F488279927821B930B25
:1021300020911002821B910920918B0030918C001C
:10214000FC01E21BF30B90938C0080938B008C01BD
:10215000092E000C220B330B409187005091880010
:102160006091890070918A0068017901C40ED51EC2
:10217000E61EF71EA7019601C0928700D092880044
:10218000E0928900F0928A0060910A02689FE00163
:10219000699FD00D1124A091B301B0E00E94EA2CF8
:1021A0008E01DD0F220B330BDC01CB01800F911F61
:1021B000A21FB31F2091F8012E9FB0012F9F700D19
:1021C0001124AB01770F660B770B7A018B01E80EB8
:1021D000F91E0A1F1B1FC801B70124E630E040E0CA
:1021E00050E00E94B62CC90199233CF02F3F3105E5
:1021F00029F024F02FEF30E001C020E023BD8091D2
:10220000B9019091BA0199233CF485B38F7D85BBC8
:1022100085B3806185BB1AC085B38F7E85BB85B3CE
:10222000806285BB13C010928C0010928B001092BC
:102230008700109288001092890010928A0085B35E
:102240008F7E85BB85B38F7D85BB13BCDF91CF911E
:102250001F910F91FF90EF90DF90CF900895F89429
:1022600091E005C02091A1003091A20090E0911171
:10227000F9CF7894C9010895F89481E00DC0609178
:10228000A3007091A40022B708B600FE04C02F3F3F
:1022900011F06F5F7F4F80E08111F1CF7894CB0117
:1022A000A0E0B0E0BA2FA92F982F8827820F911DA8
:1022B000A11DB11DBC01CD01660F771F881F991F9D
:1022C000660F771F881F991F089583B78B6683BF9A
:1022D00089B7816089BF85B58C6685BD87B3886005
:1022E00087BB81B3806881BB089585B7856085BF52
:1022F0000895861B970B9C0122F422273327281B65
:10230000390B253B310528F088E691E0821B930BC1
:102310000895C901089580910B0290910C020097D5
:1023200039F48EE190E090930C0280930B020895B3
:10233000823E2FEF920729F410920C0210920B02AA
:102340000895883C91052CF40A9690930C02809392
:102350000B0208958091B9019091BA01009739F468
:102360008EE190E09093BA018093B9010895823E86
:102370002FEF920729F41092BA011092B901089533
:10238000883C91052CF40A969093BA018093B90188
:10239000089580910B0290910C028E31910529F4E1
:1023A00010920C0210920B020895009739F482EEFD
:1023B0009FEF90930C0280930B02089589332FEFC7
:1023C00092072CF00A9790930C0280930B020895C9
:1023D0008091B9019091BA018E31910529F4109242
:1023E000BA011092B9010895009739F482EE9FEF77
:1023F0009093BA018093B901089589332FEF920722
:102400002CF00A979093BA018093B9010895CF9365
:10241000C0911802C295C695C770C73019F4809153
:102420006A0018C080916A00873031F40E942F1131
:1024300090937A00809379000E942F112091790067
:1024400030917A00821B930B8B3F910510F487E04B
:1024500001C08C2FC0936A00CF910895CF93DF9372
:10246000EB010E9400244AE062EC71E0CE010E9480
:10247000232D82EC91E00E94F323DF91CF91089508
:1024800084B38C6384BB88B3806588BB87E090E0AD
:102490000E94702D80930A0286E090E00E94702DC9
:1024A0008093B30185E090E00E94702D8093F80145
:1024B00084E090E00E94702D8093B401089584B36D
:1024C000806884BB45E050E069E070E08CED91E00D
:1024D0000E94602D45E050E06EE070E081EE91E0FA
:1024E0000E94602D88E090E00E94702D91E08111A3
:1024F00001C090E09093A0000895FF920F931F9366
:10250000CF93DF9300D0CDB7DEB700E2F12C10E01F
:102510003BC060919F0070E0660F771F660F771FCA
:10252000660F771F610F711D660F771F615A794F14
:1025300042E050E0CE0101960E94132D89819A81DC
:10254000892B21F18091B001181307C06FEF7FEF45
:1025500081E190E00E94C60E06C061E170E08FEF5D
:102560009FEF0E94C60E602F70E08F2D90E00E94BA
:10257000AA0E89819A810E944B0F005F013518F0E5
:102580008FE8F80E00E21F5F183018F21093FC017C
:1025900061E170E08FEF9FEF0E94C60E0F900F90E9
:1025A000DF91CF911F910F91FF900895EF92FF92CD
:1025B0000F931F9381E190E00E94620A0E947D12B6
:1025C0008091FC01882329F12FEF3FEF43E151E097
:1025D00068E170E080E090E00E94B30961E170E0A2
:1025E00080EE9FEF0E94C60E60E170E08AE690E008
:1025F0000E94AA0E81ED93E00E944B0F2FEF3FEF58
:1026000043E151E068E670E080E090E00E94B309A9
:102610000FC0EE24EA94FE2C0DE310E027E230E038
:102620004EE254E068E870E08CEA90E00E94300EE0
:1026300061E170E08FEF9FEF0E94C60EEE24EA94F6
:10264000FE2C00E110E021E130E04FE256E060E1D5
:1026500070E08FE291E00E94300E21E130E04FEF18
:1026600055E060E570E08FE291E00E94300E23E2D9
:1026700030E04FEA55E060EA70E08DE191E00E94C1
:10268000300E23E230E04FE555E060EE70E08DE182
:1026900091E00E94300E1F910F91FF90EF900895EE
:1026A000CF9382E1E6EEF1E0DF011D928A95E9F732
:1026B00084B3806484BB85B38F7B85BB64E670E0A4
:1026C000CF010E94552585EC93E00E94002486EE00
:1026D00091E00E94E827C82F60E386EE91E00E9417
:1026E000C324C1110AC086EE91E00E94E82781113F
:1026F00004C08FEB93E00E94002486EE91E00E94DC
:10270000E62484B38F7B84BB64E670E08FEE91E0B7
:102710000E94552583EB93E00E9400248FEE91E008
:102720000E94E827811104C08DEA93E00E940024F2
:1027300061E38FEE91E00E94C3248FEE91E00E944E
:10274000E624CF910895CF93DF930E942E128EE856
:1027500093E00E940024D0E00E940F24892BE1F333
:102760000E94B723C82F8D3221F080ED8C0F8A3064
:1027700048F48C2F0E94DC23ED2FF0E0EE53FE4F47
:10278000C083DF5FC83011F0CF3731F4DD2321F093
:102790008C2F0E94DC23D150CD3011F0DA31E0F2E1
:1027A000ED2FF0E0EE53FE4F10828BE893E00E9495
:1027B000002482EC91E00E94F52CDF91CF910895E6
:1027C0008093B8010E94E52190939C0080939B0028
:1027D0000895CF930E94E52190939E0080939D00E1
:1027E000C091B801CC23E1F02091FE01211104C079
:1027F000209110022223B1F0BC0180919B009091A6
:102800009C000E9479112C2F30E08217930760F012
:102810001092B80110929E0010929D0081E005C0B8
:1028200080E003C080E001C080E0CF910895CF93A5
:10283000DF93EB010E944B0F4AE062EC71E0CE01A6
:102840000E94232D61E170E080EE9FEF0E94C60E92
:1028500082EC91E00E943E0F61E170E08FEF9FEF0C
:102860000E94C60EDF91CF910895BF92CF92DF9262
:10287000EF92FF920F931F93CF93DF936C01B62ECD
:10288000072F0E942F117C01CB2DD02F10E00E942A
:102890002F118E199F098536910528F00E942F115E
:1028A0007C0181E018270E940712811102C0219645
:1028B00010E0813011F4219710E08230D1F08330A4
:1028C000B1F0B60180E090E00E94AA0E112329F039
:1028D00088E397E00E944B0F05C0BE0188E397E0B4
:1028E0000E94171483E191E00E945A0FD0CFCB2DA4
:1028F000D02FB60180E090E00E94AA0E83E191E023
:102900000E945A0FCE01DF91CF911F910F91FF903E
:10291000EF90DF90CF90BF900895CF930E94071261
:10292000C82F811109C08091B001882329F08150FE
:102930008093B0010E947D12C13081F42091B001DA
:10294000422F50E08091FC0190E001974817590711
:102950002CF42F5F2093B0010E947D12C23009F049
:10296000EAC0E0919F00F0E0EE0FFF1FEE0FFF1FA7
:10297000EE0FFF1F8091B001E80FF11DEE32F1055F
:1029800008F0D9C0E65DFF4F0C94D52C91E09093F0
:10299000AF018F5F80939F001092B0010E94D6120A
:1029A000CAC081E08093B6018093B0010E947D127D
:1029B000C2C083E08093B601BEC084E08093B601BC
:1029C00088ED9FEF90930C0280930B0288E290E0D9
:1029D0009093BA018093B901AEC00E94D221ABC0DE
:1029E0000E948B110E94AA11A6C00E94C9110E94C8
:1029F000E811A1C00E948B110E94E8119CC00E94A6
:102A0000C9110E94AA1197C088ED9FEF90930C0204
:102A100080930B0288E290E09093BA018093B90111
:102A20008AE50E94E01387C088E290E090930C0250
:102A300080930B0288ED9FEF9093BA018093B901C8
:102A40008AE50E94E01377C060910A0270E080E797
:102A500090E00E94351480930A02682F87E090E08E
:102A60000E948E2D68C06091B30170E080E790E015
:102A70000E9435148093B301682F86E090E00E9495
:102A80008E2D59C06091F80170E080E790E00E94BF
:102A900035148093F801682F85E090E00E948E2D18
:102AA0004AC06091B40170E080E790E00E94351464
:102AB0008093B401682F84E090E00E948E2D3BC08B
:102AC0006091110270E080E790E00E9435148093DD
:102AD0001102682F83E090E00E948E2D2CC060913F
:102AE000C10170E080E790E00E9435148093C1013D
:102AF000682F82E090E00E948E2D1DC06091B5018C
:102B000070E080E790E00E9435148093B501682F53
:102B100081E090E00E948E2D0EC06091B20170E0C5
:102B200080E790E00E9435148093B201682F80E026
:102B300090E00E948E2DC330A1F410929F0010925D
:102B4000B0011092B60110920C0210920B0210927A
:102B5000BA011092B90183EE9CE09BBD8ABD0E9430
:102B6000D612CF910895CF92DF92EF92FF920F93FA
:102B70001F93CF93DF938B01EA010E94002419C0B9
:102B800068018FEFC81AD80AF80180814AE062EC28
:102B900071E090E00E94362D82EC91E00E94F323D8
:102BA000E114F10421F08FE592E00E940024E70196
:102BB00086017E01F1E0EF1AF108CD2B09F7DF91D4
:102BC000CF911F910F91FF90EF90DF90CF900895DC
:102BD000CF92DF92EF92FF920F931F93CF93DF93E9
:102BE0008B01EA010E944B0F25C068018FEFC81AC4
:102BF000D80AF80180814AE062EC71E090E00E941E
:102C0000362D61E170E080EE9FEF0E94C60E82ECEF
:102C100091E00E943E0F61E170E08FEF9FEF0E9414
:102C2000C60EE114F10421F089EB92E00E944B0FF3
:102C3000E70186017E01F1E0EF1AF108CD2BA9F63C
:102C4000DF91CF911F910F91FF90EF90DF90CF9088
:102C500008958091B601823009F446C018F481309D
:102C600041F0B8C0833009F468C0843009F48CC0E6
:102C7000B1C085E0ECEDF1E0DF011D928A95E9F746
:102C800045E050E06FEF70E081EE91E00E941C2D76
:102C900082E08093B6019EC0822F90E0FC01EF514C
:102CA000FE4F3081FC01ED5EFD4F4081341720F076
:102CB000FC01ED5EFD4F3081FC01EF51FE4F308392
:102CC000FC01E452FE4F3081FC01ED5EFD4F40817E
:102CD000431720F0FC01ED5EFD4F3081FC01E45212
:102CE000FE4F30832F5F01C020E02530A8F260EB5B
:102CF00070E080E090E00E94AA0E8091FD0181309A
:102D000049F018F0823071F013C089EF92E00E9410
:102D10004B0F0EC08EEE92E00E944B0F81E080932D
:102D2000A00006C083EE92E00E944B0F1092A0001C
:102D30008FE391E00E945A0F4DC045E050E069E0FA
:102D400070E08CED91E00E94842D45E050E06EE053
:102D500070E081EE91E00E94842D6091A00088E0F7
:102D600090E00E948E2D60EB70E080E090E00E9489
:102D7000AA0E8EED92E00E944B0F8FE391E00E942D
:102D80005A0F1092B60126C00E94E52190939E0032
:102D900080939D002091FE01211104C0209110021A
:102DA0002223A1F020919B0030919C0026353140D8
:102DB00068F08431910550F41092BA011092B90173
:102DC00010920C0210920B021092B60190939C008C
:102DD00080939B000E94E91360E770E080E090E040
:102DE0000E94AA0E45E050E063E172E089ED92E0B6
:102DF0000E94E8158FE391E00E945A0F60E870E0AE
:102E000080E090E00E94AA0E45E050E061EE71E0A3
:102E100084ED92E00E94E8158FE391E00E945A0F42
:102E200060E970E080E090E00E94AA0E45E050E08A
:102E30006CED71E08FEC92E00E94E8158FE391E079
:102E40000E945A0F60EA70E080E090E00E94AA0EB3
:102E50006091A00070E086EC92E00E9417146091EF
:102E60009D0070919E008CEB92E00E94171483E10C
:102E700091E00E945A0F089581B3846081BB82B3B0
:102E80008B7F82BB85E18A95F1F7000082B3846075
:102E900082BB85E38A95F1F7000082B38B7F82BB0A
:102EA00081B38B7F81BB8BB780648BBF089581B367
:102EB000886081BB82B3877F82BB85E18A95F1F709
:102EC000000082B3886082BB85E38A95F1F7000039
:102ED00082B3877F82BB81B3877F81BB8BB78068DA
:102EE0008BBF089587B3846087BB88B38B7F88BB13
:102EF00085E18A95F1F7000088B3846088BB85E39B
:102F00008A95F1F7000088B38B7F88BB87B38B7FEE
:102F100087BB84B7806484BF8BB780628BBF089502
:102F20007F928F929F92AF92BF92CF92DF92EF9259
:102F3000FF920F931F93CF93DF9340E0C12C60E08B
:102F400023C0842F90E0FC01EF51FE4F5081FC0123
:102F5000E452FE4F208130E0250F311D3595279535
:102F6000FC01ED5EFD4F3081231708F46F5FFC011B
:102F7000E059FF4F2081321711F0CC24C394FC019B
:102F8000E059FF4F30834F5F4530D8F2662311F090
:102F9000653019F41092FD010AC06150623020F4CE
:102FA00081E08093FD0103C082E08093FD01D12C7C
:102FB000E12CF12C812C912C54017CC0ED2DF0E002
:102FC000DF01A059BF4FEF01C452DE4F68814C9121
:102FD000641708F4462FDF01AF51BE4F2C91421702
:102FE00008F4422F50E030E0421B530B7FEF749FF8
:102FF000C001759F900D112470E0621B730B0E943D
:103000006C2CEB01762ECC2041F18B01087F11272F
:10301000102F0027CB018C7F9927880F991F880FCD
:10302000991F880F991F082B192B862F8695869537
:103030008695082B84E090E08E1B9F0B20E130E00A
:1030400047E350E060E070E0E7E3DC01EA9FC001A5
:10305000EB9F900D11240E94FE098091A00088230F
:1030600011F07C2E7094272D30E0AD2DB0E00E9441
:10307000DB2CDC01CB01880F991FAA1FBB1F880F17
:10308000991FAA1FBB1F880F991FAA1FBB1F880F5C
:10309000991FAA1FBB1F880F991FAA1FBB1F880F4C
:1030A000991FAA1FBB1F880E991EAA1EBB1EE70CE4
:1030B000F11CD394B4E0BD1508F080CFE114F10405
:1030C00029F08BEFE81684E0F80619F41092AE01AF
:1030D0000EC0970140E050E0C501B4010E94942C5D
:1030E00080E8821B8093090281E08093AE01E09129
:1030F0000902EC3B84F0EE0FFF0B00E018EF20E13B
:1031000030E042E050E060E070E089E890E08E1B43
:103110009F0B0E94FE09DF91CF911F910F91FF90AD
:10312000EF90DF90CF90BF90AF909F908F907F9067
:103130000895CF92DF92EF92FF920F931F93CF9358
:10314000DF9394E0F92EF81AD4E0D80F809169004B
:103150008F1528F09D2F8D1718F4982F01C09F2DE3
:103160009093690080917800813009F481C020F04B
:10317000823009F4DCC024C280917700882311F0EA
:103180008FEF01C081E0980F909369004CE251E00D
:10319000949F9001959F300D1124C9018D5C974F2C
:1031A0009BBD8ABD0E942F1190937600809375007D
:1031B0000E94571760E170E080E090E00E94AA0E44
:1031C000C9EFD1E06A8170E08EE992E00E941714A5
:1031D000688170E089E992E00E941714698170E0CB
:1031E00084E992E00E94171483E191E00E945A0F53
:1031F00060E270E080E090E00E94AA0E6091080218
:1032000070E080E992E00E9417146091B70170E0CD
:103210008BE892E00E9417146091120270E086E839
:1032200092E00E9417148FE391E00E945A0F60E32E
:1032300070E080E090E00E94AA0E60910B02709115
:103240000C028EE792E00E9417146091B901709110
:10325000BA0185E792E00E9417148FE391E00E9483
:103260005A0F0E94721781E080937800E12CADC163
:103270000E942F112091750030917600821B930BD4
:103280008436910508F49EC180916900D81303C06B
:1032900091E090937700F81202C0109277000E949C
:1032A0003C170E942F11909376008093750086EE54
:1032B00091E00E9413259C01ADECBCEC0E94DB2C3C
:1032C0009695879596958795969587958F3F9105C5
:1032D00019F010F08FEF90E08093B1018FEE91E044
:1032E0000E9413259C01ADECBCEC0E94DB2C969552
:1032F000879596958795969587958F3F910519F0B7
:1033000010F08FEF90E08093120286EE91E00E9421
:103310005125811105C08FEE91E00E945125811148
:103320000E94501382E080937800E12C4EC10E94ED
:103330002F112091750030917600821B930B0E9710
:1033400008F442C120E022C0822F90E0FC01E35F3C
:10335000FD4F3081332359F0FC01EE0FFF1FE55480
:10336000FE4F408151814F3F510579F070F0FC01D3
:10337000E35FFD4F31E03083880F991FFC01E55476
:10338000FE4F8FEF90E0918380832F5F2330E0F238
:103390000E949017E091690081EFE89F802D112431
:1033A000845CF0E0E150FE4F2081C82E880FDD08DC
:1033B0002695269530E001E110E0A60168E870E06E
:1033C0008FEB90E00E94C20B8091690090E0209109
:1033D000BB013091BC01FC01E150FE4F20833091D4
:1033E000B101321738F4FC01E150FE4F308300E0A8
:1033F00018EF02C000E114E8FC01E150FE4F20810B
:103400002F3F51F02695269530E0A60168E870E040
:103410008FEB90E00E94C20B8091BD019091BE01A4
:10342000082F809308028F3F09F400E00695069567
:1034300010E020E134E8A80166EA70E083ED90E056
:103440000E94B30940E450E0401B510B21E130E001
:1034500066EA70E0C8018D529F4F0E94B309209127
:10346000BF013091C001822F2093B7012F3F09F493
:1034700080E086958695C82ED12C20E134E8A601FF
:1034800066EA70E08CEA90E08C199D090E94B3090D
:1034900040E450E04C195D0921E130E066EA70E05B
:1034A0008CE690E08C199D090E94B309609112028C
:1034B0006F3F09F460E066956695C62ED12C20E03A
:1034C00038EFA60165EC70E08FEB90E00E94680990
:1034D00040E450E04C195D09B6016B537F4F21E188
:1034E00030E08FEB90E00E946809E9EFF1E08FEFA8
:1034F0009FEF918380838283C0E0EE24E39447C0F2
:10350000CF1510F0DC17F0F46C2F70E0CB01815078
:103510009E4F6C01FC01208131EF3603A001379FE3
:10352000500D11242695269530E0445C5F4F01E153
:1035300010E068E870E08FEB90E00E94C20BF601AB
:10354000108224C0EC2FF0E0E150FE4F8081811109
:1035500003C06894EE24E1F8C33030F49091FA018E
:10356000891710F48093FA019DEF9C0F933030F48B
:103570009091F901891710F48093F901C63030F069
:103580009091FB01891710F48093FB01CF5FC83045
:1035900008F4B6CF6091B10170E080E792E00E943C
:1035A0002E1249E050E06FEF71E085E692E00E9454
:1035B000B31582E692E00E9400241092780005C0C4
:1035C000E12C03C0E12C01C0E12C8E2DDF91CF91C5
:1035D0001F910F91FF90EF90DF90CF900895809111
:1035E000AF01823009F479C028F4882351F081308A
:1035F00089F096C1833009F415C1843009F437C1CC
:103600008FC11092BA011092B90110920C0210925F
:103610000B0286C181E00E949918813009F080C1B7
:103620002091F9018091B201281710F490E007C0B1
:10363000213818F4822F90E002C080E890E0909347
:10364000BA018093B90190930C0280930B023091E0
:103650001102231720F482E08093AF0161C17091C1
:1036600008026091B701462F50E0470F511D559554
:1036700047952091C10130E0421753070CF49A019D
:10368000422F721778F4271B30E0FC01E20FF31F82
:10369000F0930C02E0930B02821B930B9093BA0100
:1036A0008093B901641708F03BC1461B842F90E05A
:1036B00020910B0230910C02281B390B30930C0225
:1036C00020930B022091B9013091BA01820F931F10
:1036D0009093BA018093B90123C19091F90180912F
:1036E00011028695981740F09091FA01981720F0F2
:1036F0009091FB01981740F41092BA011092B90111
:1037000010920C0210920B0284E00E9499188130F2
:1037100009F006C18091FA0190911102891708F011
:1037200044C02091FB01291708F03FC08091080296
:103730009091C101891780F42091B701291760F495
:10374000909112028091B501981710F480E001C0A9
:1037500084E08093AF01E4C09091B701891778F4B9
:103760008091B20190E090930C0280930B029195AE
:10377000819591099093BA018093B9010FC080910E
:10378000B20190E022273327281B390B30930C021B
:1037900020930B029093BA018093B9018AE50E94AD
:1037A000E01383E08093AF01BBC09091FB018917C8
:1037B000C0F48091B20190E090930C0280930B02D0
:1037C0003091B7012091C101321720F09195819578
:1037D000910902C080E090E09093BA018093B90112
:1037E0001AC0909108028091C101981738F0809119
:1037F000B20190E091958195910902C080E090E03E
:1038000090930C0280930B028091B20190E0909310
:10381000BA018093B90186E10E94E01383E08093AE
:10382000AF017EC080E00E94991860E470E080E003
:1038300090E00E94AA0E0E94E913882321F081E003
:103840008093AF010FC060919D0070919E0080EB4E
:1038500092E00E9417146091B80170E089EA92E04A
:103860000E9417148FE391E00E945A0F59C080E024
:103870000E949918809112022091B201821730F4AF
:10388000822F90E091958195910909C0813828F4A3
:1038900090E091958195910902C080E89FEF909307
:1038A000BA018093B90190930C0280930B0280912E
:1038B00008029091C101981720F03091B701931739
:1038C00030F59091B701981778F4822F90E0222775
:1038D0003327281B390B30930C0220930B02909353
:1038E000BA018093B9010DC0822F90E090930C0231
:1038F00080930B029195819591099093BA018093E1
:10390000B9018AE50E94E01383E08093AF019091B2
:1039100012028091B501981718F481E08093AF01ED
:1039200060E570E080E090E00E94AA0E6091AF0137
:1039300070E082EA92E00E9417140895E0919F00DF
:103940008E2F90E08730910508F017C1FC01E85AEE
:10395000FF4F0C94D52C0E94901708950E94901749
:103960000E942916089581E00E94991860E470E091
:1039700080E090E00E94AA0E8091F901843168F401
:1039800084E893E00E944B0F10920C0210920B02FD
:103990001092BA011092B90126C08091AE0188231D
:1039A000B1F08091B20190E020910902022E000C4A
:1039B000330BAC01420F531F50930C0240930B0288
:1039C000821B930B9093BA018093B9010CC08CE7D2
:1039D00093E00E944B0F10920C0210920B02109277
:1039E000BA011092B9018FE391E00E945A0F089535
:1039F0000E94EF1A08950E94901760E770E080E03F
:103A000090E00E94AA0E60910B0270910C0284E774
:103A100093E00E9417146091FE0170E08DE693E040
:103A20000E9417146CB770E085E693E00E941714AB
:103A30008FE391E00E945A0F60E870E080E090E030
:103A40000E94AA0E6091B9017091BA018DE593E0D0
:103A50000E9417146091100270E086E593E00E94C6
:103A6000171463B570E08EE493E00E9417148FE39F
:103A700091E00E945A0F0E94E913882341F01092AE
:103A80000C0210920B021092BA011092B90160E977
:103A900070E080E090E00E94AA0E60919D0070911D
:103AA0009E0085E493E00E9417146091B80170E0D5
:103AB0008CE393E00E9417148FE391E00E945A0F69
:103AC000089584E00E94991808950E94901760E874
:103AD00070E080E090E00E94AA0E60910A0270E01F
:103AE00088E393E00E9417146091B30170E083E3D0
:103AF00093E00E9417146091F80170E08EE293E069
:103B00000E9417146091B40170E089E293E00E9472
:103B100017148FE391E00E945A0F60E970E080E093
:103B200090E00E94AA0E6091110270E082E293E0A0
:103B30000E9417146091C10170E08BE193E00E9434
:103B400017146091B50170E084E193E00E941714AE
:103B50008FE391E00E945A0F60EA70E080E090E00D
:103B60000E94AA0E6091B20170E08AE093E00E9488
:103B7000171483E191E00E945A0F0895CF92DF92CB
:103B8000EF92FF920F931F93CF93DF93A0911902AF
:103B9000B0E020E838E341E050E00E94EA2C6B01FD
:103BA0007C010B2EBAE0F694E794D794C794BA95AB
:103BB000D1F7B02D0FEF1FEF2CE030E045E150E0E2
:103BC00064EE70E080E090E00E944E0B26E030E072
:103BD00042E050E067EE70E085E190E00E94FE096F
:103BE000C11429E1D20648F0C60121EDC21620E237
:103BF000D20628F080ED90E202C080E099E16C01ED
:103C000029EFD21A96013F70A3E6B0E10E94DB2CA7
:103C1000969587959695879596958795833028F004
:103C2000863030F400EE1FEF05C000E018EF02C050
:103C30000FEF1FEFEC01DD27AE014F5F5F4F28E074
:103C400030E066EE70E082E090E00E94FE0940E124
:103C500050E04C1B5D0B01E110E028E030E066EE27
:103C600070E0CE0103960E94FE09DF91CF911F9173
:103C70000F91FF90EF90DF90CF9008951F920F92D9
:103C80000FB60F9211248F939F93EF93FF9385B3F9
:103C90008F7785BB80919A00E82FF0E095B1ED5EBB
:103CA000FD4F90838F5F80939A00873010F01092C1
:103CB0009A0087B1807F90919A00892B87B9FF91F4
:103CC000EF919F918F910F900FBE0F901F901895BD
:103CD0001F920F920FB60F9211242F933F934F9381
:103CE0005F936F937F938F939F93AF93BF93EF9364
:103CF000FF938091A1009091A20001969093A20061
:103D00008093A100809199008D5F809399008D37F9
:103D100060F08D57809399008091A1009091A2004E
:103D200001969093A2008093A1008091A3009091AE
:103D3000A40001969093A4008093A3000E94A30F77
:103D40002091A1003091A20080919700909198005D
:103D5000281B390B8091B40190E08217930750F42F
:103D60008091A1009091A200909398008093970079
:103D70000E94E40F85B3806885BB86B1806486B9F4
:103D8000FF91EF91BF91AF919F918F917F916F9133
:103D90005F914F913F912F910F900FBE0F901F9009
:103DA00018951F920F920FB60F9211240F931F9325
:103DB0002F933F934F935F936F937F938F939F9333
:103DC000AF93BF93EF93FF93829B0DC00E943C1172
:103DD00060938300709384008093850090938600A5
:103DE00010920D0222C080910D0281111EC00E940E
:103DF0003C11009183001091840020918500309146
:103E00008600601B710B820B930B2AE330E040E0CD
:103E100050E00E94942C3093BC012093BB0181E0C0
:103E200080930D028BB78F7B8BBFFF91EF91BF917A
:103E3000AF919F918F917F916F915F914F913F9142
:103E40002F911F910F910F900FBE0F901F901895FB
:103E50001F920F920FB60F9211240F931F932F935F
:103E60003F934F935F936F937F938F939F93AF9302
:103E7000BF93EF93FF93839B0DC00E943C1160930F
:103E80007F00709380008093810090938200109255
:103E90000E0222C080910E0281111EC00E943C11B0
:103EA00000917F001091800020918100309182006C
:103EB000601B710B820B930B2AE330E040E050E073
:103EC0000E94942C3093BE012093BD0181E0809329
:103ED0000E028BB78F778BBFFF91EF91BF91AF91A0
:103EE0009F918F917F916F915F914F913F912F9112
:103EF0001F910F910F900FBE0F901F9018951F925A
:103F00000F920FB60F9211240F931F932F933F938D
:103F10004F935F936F937F938F939F93AF93BF93D1
:103F2000EF93FF93B29B10C00E943C1160937B0003
:103F300070937C0080937D0090937E0010920F021E
:103F400084B78F7B84BF22C080910F0281111EC075
:103F50000E943C1100917B0010917C0020917D001B
:103F600030917E00601B710B820B930B2AE330E0D3
:103F700040E050E00E94942C3093C0012093BF0198
:103F800081E080930F028BB78F7D8BBFFF91EF9104
:103F9000BF91AF919F918F917F916F915F914F9161
:103FA0003F912F911F910F910F900FBE0F901F9077
:103FB000189580910B0290910C022091B9013091DB
:103FC000BA01821793072CF486E294E00E94002441
:103FD0001EC0281739072CF48FE194E00E940024BA
:103FE00016C099233CF433232CF484E194E00E941E
:103FF00000240DC0892B39F4232B29F48DE094E0A3
:104000000E94002404C083E094E00E940024609198
:104010000B0270910C028CEF93E00E942E126091C3
:10402000B9017091BA0189EF93E00E942E1286EFD8
:1040300093E00E94002408950E94B723809788355A
:10404000910508F067C0815A9F4FFC010C94D52C54
:104050000E948B110E94E8110E94D91F08950E94AE
:10406000C9110E94AA110E94D91F08950E948B11A4
:104070000E94AA110E94D91F08950E94C9110E948E
:10408000E8110E94D91F089510920C0210920B02A1
:104090001092BA011092B9010E94D91F089560913F
:1040A0000A0270E089EA93E00E94A31380930A0257
:1040B000682F87E090E00E948E2D08956091F801AE
:1040C00070E085EA93E00E94A3138093F801682FC3
:1040D00085E090E00E948E2D08956091B30170E01C
:1040E00081EA93E00E94A3138093B301682F86E0D6
:1040F00090E00E948E2D08956091B40170E08CE9EB
:1041000093E00E94A3138093B401682F84E090E0B1
:104110000E948E2D089587E690E00E949B238EEEEC
:1041200093E00E94002483E090E00E94702D809331
:10413000110282E090E00E94702D8093C10181E025
:1041400090E00E94702D8093B50180E090E00E9485
:10415000702D8093B2010E94F7220E948C0F0E9462
:1041600065110E9440120E94910F0E9475110E94D9
:104170005F120E94390883E00E94760A81ED97E081
:104180000E940F0C0E94D61284EE93E00E9400243D
:104190000E943721882321F08EED93E00E940024B5
:1041A0000E945013789487ED93E00E940024C0E0B1
:1041B000D0E0E12CF12C0E942F118C010E940F24E1
:1041C000892B11F00E941C200E948D140E949E1CBD
:1041D0000E94BE1D0E942F11801B910B8C01C817DD
:1041E000D90708F4EC010E942F118E199F09893E0E
:1041F000934020F00E942F117C01E80160ED70E0F7
:104200008EE191E00E94AA0EBE0186ED93E00E942D
:1042100017148FE391E00E945A0FCDCFCF93DF9315
:10422000D82FC62F8AE10E94FB228D2F0E942323C4
:104230008C2F0E9423230E941D23DF91CF9108958C
:10424000CF93C82F8AE10E94FB2281110DC08C2FD1
:104250000E9423238BE10E941A230E943823C82F37
:104260000E941D238C2F01C080E0CF9108958DE026
:104270000E9420218F3F51F561E08BE00E940E21CA
:104280006DE189E00E940E2189E190E00E94782D85
:10429000909321028093200287E190E00E94782D84
:1042A00090931F0280931E0285E190E00E94782D7A
:1042B00090931B0280931A0283E190E00E94782D74
:1042C00090931D0280931C0280E0089581E0089580
:1042D000CF92DF92EF92FF920F931F93CF93DF93D2
:1042E0007C018B01EA018AE10E94FB22811130C02E
:1042F0000E9423238BE10E941A230E943123C82E9F
:10430000D12C0E94312390E0982F88278C299D2959
:10431000F701918380830E943123E82EF12C0E94C3
:10432000312390E0982F88278E299F29F8019183C7
:1043300080830E943123082F10E00E94382390E0F0
:10434000982F8827802B912B998388830E941D2387
:10435000DF91CF911F910F91FF90EF90DF90CF9061
:104360000895609120027091210289E190E00E94FD
:104370007E2D60911E0270911F0287E190E00E94E5
:104380007E2D60911A0270911B0285E190E00E94DF
:104390007E2D60911C0270911D0283E190E00E94CD
:1043A0007E2D089510921D0210921C0210921B0285
:1043B00010921A0210921F0210921E0210922102F5
:1043C000109220020E94B12108954F925F926F9245
:1043D0007F928F929F92AF92BF92EF92FF920F9334
:1043E0001F93CF93DF93CDB7DEB72A970FB6F8941C
:1043F000DEBF0FBECDBF1A8219821C821B821E82B5
:104400001D82AE014B5F5F4FBE016D5F7F4FCE01DE
:1044100001960E9468218091200290912102892BAF
:1044200081F480911E0290911F02892B51F48981A1
:104430009A8190931F0280931E0290932102809391
:10444000200280911A0290911B02892B81F48091A5
:104450001C0290911D02892B51F48B819C819093B9
:104460001D0280931C0290931B0280931A02898183
:104470009A812091200230912102821793070CF437
:104480009C01309321022093200220911E02309142
:104490001F02281739070CF49C0130931F02209348
:1044A0001E028B819C8120911A0230911B0282177F
:1044B00093070CF49C0130931B0220931A02209165
:1044C0001C0230911D02281739070CF49C0130930F
:1044D0001D0220931C020E94B121A0901E02B090E8
:1044E0001F028090200290902102C501880D991D25
:1044F00099230CF401969595879569817A81681BBB
:10450000790B00911C0210911D02E0901A02F090AC
:104510001B02C8018E0D9F1D99230CF401969595E1
:1045200087956B807C80681A790A072E000C880BAF
:10453000990B0E94DB2A6F83788789879A87B50158
:1045400068197909072E000C880B990B0E94DB2A49
:104550009B01AC016F81788589859A850E94312AFB
:104560004B015C01B301770C880B990B0E94DB2A8D
:104570002B013C01B8016E197F09072E000C880B36
:10458000990B0E94DB2A9B01AC01C301B2010E947E
:10459000312AA50194010E94D22920E030E044E3B1
:1045A00053E40E948E2B2BED3FE049E450E40E943F
:1045B000312A0E94A32A9B011616170614F02859C7
:1045C0003E4FC9012A960FB6F894DEBF0FBECDBF8D
:1045D000DF91CF911F910F91FF90EF90BF90AF901F
:1045E0009F908F907F906F905F904F90089511B83B
:1045F0008CE080B9089594EA96BF06B607FEFDCF19
:1046000091B1987F983011F0903171F483B984E8BA
:1046100086BF06B607FEFDCF81B1887F883131F0B5
:10462000803431F480E0089581E0089580E00895B9
:1046300081E008950E94FB22089584E986BF06B6B2
:1046400004FCFDCF089583B984E886BF06B607FE53
:10465000FDCF81B1887F883211F081E0089580E03C
:10466000089584EC86BF06B607FEFDCF83B108959A
:1046700084E886BF06B607FEFDCF83B108951F927A
:104680000F920FB60F9211242F933F934F935F9386
:104690008F939F93EF93FF932BB13CB1287180913F
:1046A000A70090E001968F7799274091A60050E0EF
:1046B0008417950739F08093A700FC01E655FF4F5A
:1046C000308301C022E02093A500FF91EF919F91DC
:1046D0008F915F914F913F912F910F900FBE0F904F
:1046E0001F9018951F920F920FB60F9211248F935F
:1046F0009F93EF93FF939091A9008091A800981742
:1047000071F08091A80090E001968F7799278093AF
:10471000A800FC01E65DFE4F80818CB903C08AB120
:104720008F7D8AB9FF91EF919F918F910F900FBE6E
:104730000F901F9018959C01F89491E009C0109279
:10474000A9001092A8001092A7001092A60090E075
:104750009111F5CF789433231CF482E08BB93F7725
:1047600030BD29B988E98AB986E880BD0895F894F2
:1047700081E00BC02091A7009091A60080E0291352
:1047800004C0789480E091E008958111F3CF78948B
:104790008091A60090E001968F7799278093A600DC
:1047A000FC01E655FF4F20818091A50090E0982FF5
:1047B0008827820F911D08954091A90050E04F5F16
:1047C0005F4F4F7755272091A80030E042175307DD
:1047D000D1F3FA01E65DFE4F80834093A9008AB1D0
:1047E00080628AB90895CF93DF93EC0103C02196CC
:1047F0000E94DC2388818111FACFDF91CF91089547
:10480000CF93DF93FC0103C00E94DC23FE01EF0184
:10481000219684918111F8CFDF91CF910895F8947A
:1048200021E00CC08091A70090E080589F4F20911C
:10483000A600821B91098F77992720E02111F2CFE2
:1048400078940895CF93DF93D62FC42FFC018081F5
:104850000E94FB228D2F0E9423238C2F0E94232352
:104860000E941D23DF91CF9108951F93CF93DF9373
:10487000162FC42FD52FFC0180810E94FB22812F8F
:104880000E9423238D2F0E9423238C2F0E942323F9
:104890000E941D23DF91CF911F9108951F93CF9305
:1048A000DF93EC01162F88810E94FB2281110EC03C
:1048B000812F0E942323888181600E941A230E94F5
:1048C0003823C82F0E941D238C2F01C080E0DF9168
:1048D000CF911F9108951F93CF93DF93EC01162F73
:1048E00088810E94FB22811115C0812F0E94232301
:1048F000888181600E941A230E943123C82FD0E052
:10490000DC2FCC270E943823C82B0E941D238C2F1C
:104910009D2F02C080E090E0DF91CF911F9108951C
:10492000EF92FF920F931F93CF93DF937C01D62FCB
:104930008A01C22FFC0180810E94FB2281111CC0D0
:104940008D2F0E942323F701808181600E941A230A
:104950000FC07801FFEFEF1AFF0AC23018F00E9473
:10496000312302C00E943823F8018083C15087019F
:10497000C111EFCF0E941D23DF91CF911F910F91A5
:10498000FF90EF9008950F931F93CF938C01C62F44
:10499000462F4F776AE80E942224CC0FF801C0838B
:1049A000CF911F910F910895611106C060E50E949B
:1049B0004E248F5F880F0895613031F460E70E94C4
:1049C0004E248F5F880F08958FEF0895CF93DF9364
:1049D000EC0141E060E80E94222441E06FEFCE014B
:1049E0000E94222440E060E0CE010E9422244C81FB
:1049F00061E9CE010E94222441E060E0CE010E94E4
:104A0000222440E06FEFCE010E94222440E060E8C3
:104A1000CE010E94222442E060E0CE010E942224C6
:104A2000DF91CF9108950F931F93CF93DF93EC0104
:104A300000E010E014C089819A81009751F00F5F67
:104A40001F4F8017910728F481E08B838FEF9FEF32
:104A500023C08FE99FE00197F1F700C0000063E1F8
:104A6000CE010E944E24877031F364E1CE010E9492
:104A70004E248877883539F46EE1CE010E946B248C
:104A8000082F192F02C00FEF1FEF41E06BE0CE019E
:104A90000E942224802F912FDF91CF911F910F919F
:104AA0000895FC01838113820895FC017283618360
:104AB0000895CF93DF93EB0161E00E944E2484FBC5
:104AC000992790F9988383FB992790F99A8382FB21
:104AD000992790F9998386FB992790F99B83881FE2
:104AE0008827881F8C83DF91CF9108959C013327FD
:104AF000A90102C0440F551F9A95E2F7CA01019619
:104B000008950F931F936115710581059105D9F0E3
:104B1000AB01BC01415051096109710980E090E08D
:104B200005C0769567955795479501968A019B0133
:104B30000027012B022B032BA1F7982F882755273D
:104B4000842B952B02C080E090E01F910F91089577
:104B5000CF92DF92EF92FF92CF93DF93EC01A62FDB
:104B6000B0E020E03FE24AE350E00E94EA2C6C50C3
:104B70007E4F8F4F9F4F0F2EF8EECF2EF3E0DF2E9C
:104B8000E12CF12CF02DA70196010E94942CDE015E
:104B90000E94EA2C6C507E4F8F4F9F4FA7019601C9
:104BA0000E94942CCA01B901DF91CF91FF90EF9040
:104BB000DF90CF900895EF92FF920F931F93CF93C2
:104BC000DF938C017B01EA0160E00E94D42490E035
:104BD0009983888366E4C8010E944E2490E0019680
:104BE0009D838C8368810E94A8256A877B878C8738
:104BF0009D8761E5C8010E946B240E9476259F83F2
:104C00008E8368810E94A8256E877F87888B998B09
:104C100061E0C8010E94D42490E09B838A8361E70D
:104C2000C8010E946B240E94762599878887F70126
:104C30002381222331F02E813F81821B930B9987A0
:104C400088876A81888599850E94A8256A8B7B8BD5
:104C50008C8B9D8BDF91CF911F910F91FF90EF90E7
:104C60000895CF92DF92EF92FF920F931F93CF930D
:104C7000DF93CDB7DEB76B970FB6F894DEBF0FBEEC
:104C8000CDBF8C01BE016F5F7F4F0E945925AE01E1
:104C90004A5F5F4FBE016F5F7F4FC8010E94DB25F7
:104CA0008981882359F088899989AA89BB89BC019F
:104CB000CD016C57724F8F4F9F4F04C066E37BE06E
:104CC00080E090E02B81222399F0C888D988EA8877
:104CD000FB8822EBC20E22E0D21EE11CF11CCC0CA0
:104CE000DD1CEE1CFF1C6C0D7D1D8E1D9F1D13C059
:104CF0002A81222381F0C888D988EA88FB88DC01D0
:104D0000CB018C0D9D1DAE1DBF1DBC01CD016C5690
:104D10007D4F8F4F9F4F2C81222381F0CC88DD88DF
:104D2000EE88FF88DC01CB018C0D9D1DAE1DBF1DE3
:104D3000BC01CD016C567D4F8F4F9F4F2D8122239B
:104D400081F0C88CD98CEA8CFB8CDC01CB018C0DFA
:104D50009D1DAE1DBF1DBC01CD016A5D7D4F8F4FF6
:104D60009F4FF80165837683878390876B960FB694
:104D7000F894DEBF0FBECDBFDF91CF911F910F9191
:104D8000FF90EF90DF90CF9008953F924F925F9207
:104D90006F927F928F929F92AF92BF92CF92DF924B
:104DA000EF92FF920F931F93CF93DF93CDB7DEB7B0
:104DB0006F970FB6F894DEBF0FBECDBF8C016A01AE
:104DC0007B01BE016F5F7F4F0E945925AE014A5F94
:104DD0005F4FBE016F5F7F4FC8010E94DB25898155
:104DE000882349F088899989AA89BB898C57924F71
:104DF000AF4FBF4F04C086E39BE0A0E0B0E02B8143
:104E0000222389F0488959896A897B894E545D4FEC
:104E10006F4F7F4F440F551F661F771F840F951FDD
:104E2000A61FB71F0FC02A81222361F04889598924
:104E30006A897B89840F951FA61FB71F8C569D4FCB
:104E4000AF4FBF4F3C80332061F04C895D896E8944
:104E50007F89840F951FA61FB71F8C569D4FAF4F9C
:104E6000BF4F2D81222309F464C08A5D9D4FAF4F4F
:104E7000BF4FC816D906EA06FB0608F45CC0260137
:104E80003701481A590A6A0A7B0AA885B0E020E06F
:104E90003FE24AE350E00E94EA2C4B015C0124EF20
:104EA000820E21E0921EA11CB11CC501B40128EEA6
:104EB00033E040E050E00E94942C2C8F3D8F4E8FC9
:104EC0005F8FA8EEB3E0A30192010E94EA2C2B01B0
:104ED0003C01C501B40120ED37E040E050E00E9404
:104EE000942CC301B201620F731F841F951F2C8D78
:104EF0003D8D4E8D5F8D0E94942CCA01B9013320E7
:104F000051F08C859D8549015A01880E991EA11C7E
:104F1000B11CC501B4010E948125AC0161E7C80143
:104F20000E943524F801C582D682E782F08681E0AE
:104F300003C081E001C080E06F960FB6F894DEBF39
:104F40000FBECDBFDF91CF911F910F91FF90EF90DA
:104F5000DF90CF90BF90AF909F908F907F906F9099
:104F60005F904F903F9008950F931F93CF93DF93DF
:104F7000EC01462F416060E00E94222400E010E036
:104F80000FC089819A81009729F00F5F1F4F80170A
:104F90009107C0F08FE99FE00197F1F700C0000092
:104FA00063E1CE010E944E24877059F341E06BE02B
:104FB000CE010E94222440E060E0CE010E94222423
:104FC00081E001C080E0DF91CF911F910F910895A2
:104FD000CF92DF92EF92FF920F931F93CF93DF93C5
:104FE00000D000D000D0CDB7DEB78C01FC018081AD
:104FF000811102C082E5808360ECC8010E944E24CA
:105000008E3E09F0ABC169E8C8010E944E24482FCA
:10501000416069E8C8010E94222440E068E8C801B4
:105020000E94222441E060E8C8010E94222441E05D
:105030006FEFC8010E94222440E060E0C8010E9496
:10504000222461E9C8010E944E24F801848341E0D2
:1050500060E0C8010E94222440E06FEFC8010E9476
:10506000222440E060E8C8010E94222460E6C801D2
:105070000E944E24482F426160E6C8010E9422240B
:1050800040E250E064E4C8010E9435244FEF61E043
:10509000C8010E94222441E060E8C8010E94222445
:1050A00041E06FEFC8010E94222440E060E0C801A7
:1050B0000E94222446E06FEFC8010E94222463E888
:1050C000C8010E944E24482F446063E8C8010E9432
:1050D000222447E06FEFC8010E94222441E061E8EA
:1050E000C8010E94222441E060E8C8010E942224F5
:1050F0004BE664E9C8010E94222440E063E8C8014D
:105100000E942224C12CD12C12C0F80181819281ED
:10511000009739F0FFEFCF1ADF0A8C159D0508F4D0
:1051200048C08FE99FE00197F1F700C0000063E8F5
:10513000C8010E944E24882341F341E063E8C8017E
:105140000E94222462E9C8010E944E24982F9F7772
:10515000F92EEE24E39488230CF0E12C40E061E882
:10516000C8010E94222446E06FEFC8010E94222459
:1051700063E8C8010E944E24482F4B7F63E8C801B2
:105180000E94222441E06FEFC8010E94222441E0E6
:1051900060E0C8010E94222440E06FEFC8010E9435
:1051A000222440E060E8C8010E942224DD24D39438
:1051B00001C0D12CDD2009F4D2C026E0AE014F5F42
:1051C0005F4F60EBC8010E94902441E06FEFC8017F
:1051D0000E94222440E06FE4C8010E9422244CE295
:1051E0006EE4C8010E94222440E06FEFC8010E94D3
:1051F000222444EB66EBC8010E942224EE2011F029
:105200004CE001C040E080E050E032C0841710F074
:105210005F1118C0982F977021E030E002C0220F74
:10522000331F9A95E2F7982F969596959695E1E01B
:10523000F0E0EC0FFD1FE90FF11D2095908129236F
:10524000208315C0982F969596959695E1E0F0E00D
:10525000EC0FFD1FE90FF11D208130E0982F9770B2
:1052600002C0359527959A95E2F720FD5F5F8F5F25
:10527000803360F2F80180810E94FB2280EB0E9463
:10528000232386E0FE01319609C06F012FEFC21A79
:10529000D20A80810E9423238F2DF601FF24FA94E5
:1052A000F80E8111F2CF0E941D23E3E4FFE0E491A8
:1052B0000F2EF4E4CF2EFFE0DF2EF02D0BC0F60111
:1052C000649131964491F2E0CF0ED11CC8010E9446
:1052D0002224EF2DFF24FA94FE0EE111F0CF44E0DA
:1052E0006AE0C8010E94222464E8C8010E944E249A
:1052F000482F4F7E64E8C8010E94222441E06BE001
:10530000C8010E94222448EE61E0C8010E942224C4
:10531000C8010E943126AB01BC01C8010E94C5260C
:1053200041E061E0C8010E94222460E4C8010E94BB
:10533000B427D82E882399F042E061E0C8010E948A
:10534000222460E0C8010E94B427D82E882339F0B7
:1053500048EE61E0C8010E94222401C0D12C8D2DAD
:1053600026960FB6F894DEBF0FBECDBFDF91CF916A
:105370001F910F91FF90EF90DF90CF9008950E94C2
:10538000462B60F080E891E009F49EEF0E944D2BDF
:1053900028F040E851E071F45EEF0CC00C941C2B37
:1053A0000C94872BE92FE0780E94652B40F3092E9F
:1053B000052AB1F3261737074807590738F00E2E8C
:1053C00007F8E02569F0E025E0640AC0EF6307F81C
:1053D000009407FADB01B9019D01DC01CA01AD01AE
:1053E000EF930E94482A0E94542B0E94022A5F9148
:1053F000552339F02BED3FE049E450FD49EC0C9486
:10540000002C0895DF93DD27B92FBF7740E85FE3D5
:105410001616170648075B0718F4D92F0E9450008C
:105420009F938F937F936F930E94FB2BEEE6F1E0A7
:105430000E941F2B0E94542B2F913F914F915F91FF
:105440000E94A12BDD2351F09058A2EA2AED3FE003
:1054500049EC5FE3D0785D270E94172CDF910C9414
:10546000542B0E94452A0C94542B0E944D2B58F02B
:105470000E94462B40F029F45F3F29F00C94162B34
:1054800051110C94882B0C941C2B0E94652B68F3F3
:105490009923B1F3552391F3951B550BBB27AA27ED
:1054A00062177307840738F09F5F5F4F220F331F27
:1054B000441FAA1FA9F335D00E2E3AF0E0E832D0EF
:1054C00091505040E695001CCAF72BD0FE2F29D0F2
:1054D000660F771F881FBB1F261737074807AB07C4
:1054E000B0E809F0BB0B802DBF01FF2793585F4F39
:1054F0003AF09E3F510578F00C94162B0C94882BB3
:105500005F3FE4F3983ED4F3869577956795B7951A
:10551000F7959F5FC9F7880F911D9695879597F925
:105520000895E1E0660F771F881FBB1F621773079E
:105530008407BA0720F0621B730B840BBA0BEE1FB3
:1055400088F7E09508950E94AA2A6894B1110C94F6
:10555000882B08950E946D2B88F09F5798F0B92FE3
:105560009927B751B0F0E1F0660F771F881F991F98
:105570001AF0BA95C9F714C0B13091F00E94872B88
:10558000B1E008950C94872B672F782F8827B85F98
:1055900039F0B93FCCF3869577956795B395D9F7F0
:1055A0003EF490958095709561957F4F8F4F9F4FFA
:1055B0000895E89409C097FB3EF490958095709506
:1055C00061957F4F8F4F9F4F9923A9F0F92F96E94F
:1055D000BB279395F695879577956795B795F111C4
:1055E000F8CFFAF4BB0F11F460FF1BC06F5F7F4F61
:1055F0008F4F9F4F16C0882311F096E911C0772373
:1056000021F09EE8872F762F05C0662371F096E87B
:10561000862F70E060E02AF09A95660F771F881F4A
:10562000DAF7880F9695879597F9089597F99F6708
:1056300080E870E060E008959FEF80EC0895DF93CC
:10564000CF931F930F93FF92EF92DF927B018C0118
:10565000689406C0DA2EEF010E94A12BFE01E894A7
:10566000A5912591359145915591A6F3EF010E94A1
:10567000172CFE019701A801DA9469F7DF90EF90EB
:10568000FF900F911F91CF91DF91089500240A940C
:105690001616170618060906089500240A9412160D
:1056A0001306140605060895092E0394000C11F440
:1056B000882352F0BB0F40F4BF2B11F460FF04C0ED
:1056C0006F5F7F4F8F4F9F4F089557FD9058440F46
:1056D000551F59F05F3F71F04795880F97FB991F51
:1056E00061F09F3F79F0879508951216130614060E
:1056F000551FF2CF4695F1DF08C01616170618069B
:10570000991FF1CF86957105610508940895E89475
:10571000BB2766277727CB0197F908950E94A12B15
:105720000C94542B0E94462B38F00E944D2B20F0F5
:10573000952311F00C94162B0C941C2B11240C9413
:10574000882B0E94652B70F3959FC1F3950F50E055
:10575000551F629FF001729FBB27F00DB11D639F23
:10576000AA27F00DB11DAA1F649F6627B00DA11DC9
:10577000661F829F2227B00DA11D621F739FB00D6F
:10578000A11D621F839FA00D611D221F749F3327DF
:10579000A00D611D231F849F600D211D822F762F78
:1057A0006A2F11249F5750409AF0F1F088234AF055
:1057B000EE0FFF1FBB1F661F771F881F91505040C1
:1057C000A9F79E3F510580F00C94162B0C94882B62
:1057D0005F3FE4F3983ED4F3869577956795B79548
:1057E000F795E7959F5FC1F7FE2B880F911D969562
:1057F000879597F908959B01AC010C948E2B505816
:10580000BB27AA270E94172C0C94542B0E94462BCE
:1058100038F00E944D2B20F039F49F3F19F426F404
:105820000C941C2B0EF4E095E7FB0C94162BE92F3F
:105830000E94652B58F3BA17620773078407950710
:1058400020F079F4A6F50C94872B0EF4E0950B2E3E
:10585000BA2FA02D0B01B90190010C01CA01A001C2
:105860001124FF27591B99F0593F50F4503E68F11D
:105870001A16F040A22F232F342F4427585FF3CF5E
:10588000469537952795A795F0405395C9F77EF42F
:105890001F16BA0B620B730B840BBAF09150A1F078
:1058A000FF0FBB1F661F771F881FC2F70EC0BA0FFE
:1058B000621F731F841F48F4879577956795B79586
:1058C000F7959E3F08F0B0CF9395880F08F0992781
:1058D000EE0F979587950895AA1BBB1B51E107C052
:1058E000AA1FBB1FA617B70710F0A61BB70B881F70
:1058F000991F5A95A9F780959095BC01CD010895FF
:1059000097FB072E16F4009407D077FD09D00E946C
:105910006C2C07FC05D03EF4909581959F4F08951F
:10592000709561957F4F0895A1E21A2EAA1BBB1BAB
:10593000FD010DC0AA1FBB1FEE1FFF1FA217B3075B
:10594000E407F50720F0A21BB30BE40BF50B661F71
:10595000771F881F991F1A9469F760957095809535
:1059600090959B01AC01BD01CF010895052E97FBD9
:105970001EF400940E94CD2C57FD07D00E94942C59
:1059800007FC03D04EF40C94CD2C509540953095E7
:1059900021953F4F4F4F5F4F08959095809570959B
:1059A00061957F4F8F4F9F4F0895EE0FFF1F05901A
:1059B000F491E02D0994A29FB001B39FC001A39F71
:1059C000700D811D1124911DB29F700D811D112438
:1059D000911D08950E94DB2CA59F900DB49F900D02
:1059E000A49F800D911D11240895FC0188279927FB
:1059F000E89421912032E9F3293010F02E30C8F3D9
:105A00002B3241F02D3239F4689404C00E942E2DBF
:105A1000820F911D219120532A30C0F31EF49095DE
:105A200081959F4F0895FB01DC0102C005900D9206
:105A300041505040D8F70895DC0101C06D934150AA
:105A40005040E0F70895BB274A3031F4992322F4FF
:105A5000BDE2909581959F4F0C94372D7AE0979FEA
:105A6000902D879F802D910D11240895BB27FB0158
:105A70005527AA27880F991FAA1FA41710F0A41B47
:105A800083955051B9F7A05DAA3308F0A95DA193A1
:105A9000009779F7B111B1931192CB010C94502D6D
:105AA000DC01FC01672F71917723E1F7329704C085
:105AB0007C916D9370836291AE17BF07C8F3089510
:105AC000DC01CB01FC01E199FECF06C0FFBBEEBBC0
:105AD000E09A31960DB20D9241505040B8F70895BA
